{
  "contractName": "Election",
  "abi": [
    {
      "constant": true,
      "inputs": [],
      "name": "HRCount",
      "outputs": [
        {
          "name": "",
          "type": "uint256"
        }
      ],
      "payable": false,
      "stateMutability": "view",
      "type": "function"
    },
    {
      "constant": true,
      "inputs": [],
      "name": "candidatesCount",
      "outputs": [
        {
          "name": "",
          "type": "uint256"
        }
      ],
      "payable": false,
      "stateMutability": "view",
      "type": "function"
    },
    {
      "constant": true,
      "inputs": [
        {
          "name": "",
          "type": "address"
        }
      ],
      "name": "companies",
      "outputs": [
        {
          "name": "id",
          "type": "address"
        },
        {
          "name": "name",
          "type": "string"
        },
        {
          "name": "country",
          "type": "string"
        },
        {
          "name": "rating",
          "type": "uint256"
        }
      ],
      "payable": false,
      "stateMutability": "view",
      "type": "function"
    },
    {
      "constant": true,
      "inputs": [
        {
          "name": "",
          "type": "uint256"
        }
      ],
      "name": "HRList",
      "outputs": [
        {
          "name": "id",
          "type": "address"
        },
        {
          "name": "name",
          "type": "string"
        },
        {
          "name": "company_name",
          "type": "string"
        }
      ],
      "payable": false,
      "stateMutability": "view",
      "type": "function"
    },
    {
      "constant": true,
      "inputs": [
        {
          "name": "",
          "type": "address"
        }
      ],
      "name": "registerList",
      "outputs": [
        {
          "name": "",
          "type": "string"
        }
      ],
      "payable": false,
      "stateMutability": "view",
      "type": "function"
    },
    {
      "constant": true,
      "inputs": [
        {
          "name": "",
          "type": "address"
        }
      ],
      "name": "HRs",
      "outputs": [
        {
          "name": "id",
          "type": "address"
        },
        {
          "name": "name",
          "type": "string"
        },
        {
          "name": "company_name",
          "type": "string"
        }
      ],
      "payable": false,
      "stateMutability": "view",
      "type": "function"
    },
    {
      "constant": true,
      "inputs": [],
      "name": "companiesCount",
      "outputs": [
        {
          "name": "",
          "type": "uint256"
        }
      ],
      "payable": false,
      "stateMutability": "view",
      "type": "function"
    },
    {
      "constant": true,
      "inputs": [
        {
          "name": "",
          "type": "address"
        }
      ],
      "name": "candidates",
      "outputs": [
        {
          "name": "id",
          "type": "address"
        },
        {
          "name": "name",
          "type": "string"
        },
        {
          "name": "country",
          "type": "string"
        },
        {
          "name": "score",
          "type": "uint256"
        }
      ],
      "payable": false,
      "stateMutability": "view",
      "type": "function"
    },
    {
      "constant": true,
      "inputs": [
        {
          "name": "",
          "type": "uint256"
        }
      ],
      "name": "candidateList",
      "outputs": [
        {
          "name": "id",
          "type": "address"
        },
        {
          "name": "name",
          "type": "string"
        },
        {
          "name": "country",
          "type": "string"
        },
        {
          "name": "score",
          "type": "uint256"
        }
      ],
      "payable": false,
      "stateMutability": "view",
      "type": "function"
    },
    {
      "constant": true,
      "inputs": [
        {
          "name": "",
          "type": "uint256"
        }
      ],
      "name": "companyList",
      "outputs": [
        {
          "name": "id",
          "type": "address"
        },
        {
          "name": "name",
          "type": "string"
        },
        {
          "name": "country",
          "type": "string"
        },
        {
          "name": "rating",
          "type": "uint256"
        }
      ],
      "payable": false,
      "stateMutability": "view",
      "type": "function"
    },
    {
      "inputs": [],
      "payable": false,
      "stateMutability": "nonpayable",
      "type": "constructor"
    },
    {
      "anonymous": false,
      "inputs": [
        {
          "indexed": true,
          "name": "_candidateId",
          "type": "uint256"
        }
      ],
      "name": "votedEvent",
      "type": "event"
    },
    {
      "constant": false,
      "inputs": [
        {
          "name": "a",
          "type": "address"
        },
        {
          "name": "_name",
          "type": "string"
        },
        {
          "name": "_country",
          "type": "string"
        }
      ],
      "name": "initCandidate",
      "outputs": [],
      "payable": false,
      "stateMutability": "nonpayable",
      "type": "function"
    },
    {
      "constant": false,
      "inputs": [
        {
          "name": "a",
          "type": "address"
        },
        {
          "name": "_name",
          "type": "string"
        },
        {
          "name": "_country",
          "type": "string"
        }
      ],
      "name": "initCompany",
      "outputs": [],
      "payable": false,
      "stateMutability": "nonpayable",
      "type": "function"
    },
    {
      "constant": false,
      "inputs": [
        {
          "name": "a",
          "type": "address"
        },
        {
          "name": "_name",
          "type": "string"
        },
        {
          "name": "company",
          "type": "string"
        }
      ],
      "name": "initHR",
      "outputs": [],
      "payable": false,
      "stateMutability": "nonpayable",
      "type": "function"
    },
    {
      "constant": false,
      "inputs": [
        {
          "name": "_name",
          "type": "string"
        },
        {
          "name": "_country",
          "type": "string"
        }
      ],
      "name": "addCandidate",
      "outputs": [],
      "payable": false,
      "stateMutability": "nonpayable",
      "type": "function"
    },
    {
      "constant": false,
      "inputs": [
        {
          "name": "_name",
          "type": "string"
        },
        {
          "name": "_country",
          "type": "string"
        }
      ],
      "name": "addCompany",
      "outputs": [],
      "payable": false,
      "stateMutability": "nonpayable",
      "type": "function"
    },
    {
      "constant": false,
      "inputs": [
        {
          "name": "_name",
          "type": "string"
        },
        {
          "name": "company",
          "type": "string"
        }
      ],
      "name": "addHR",
      "outputs": [],
      "payable": false,
      "stateMutability": "nonpayable",
      "type": "function"
    },
    {
      "constant": false,
      "inputs": [
        {
          "name": "_candidateId",
          "type": "uint256"
        }
      ],
      "name": "verify",
      "outputs": [],
      "payable": false,
      "stateMutability": "nonpayable",
      "type": "function"
    },
    {
      "constant": false,
      "inputs": [
        {
          "name": "_companyId",
          "type": "uint256"
        }
      ],
      "name": "Rate",
      "outputs": [],
      "payable": false,
      "stateMutability": "nonpayable",
      "type": "function"
    },
    {
      "constant": false,
      "inputs": [
        {
          "name": "employee",
          "type": "uint256"
        }
      ],
      "name": "check",
      "outputs": [],
      "payable": false,
      "stateMutability": "nonpayable",
      "type": "function"
    }
  ],
  "bytecode": "0x60806040523480156200001157600080fd5b50600080600080600073e1e666dadf9f3d76492fab543cd9679d665399eb9450620000b7856040805190810160405280600481526020017f44696469000000000000000000000000000000000000000000000000000000008152506040805190810160405280600581526020017f4368696e6100000000000000000000000000000000000000000000000000000081525062000299640100000000026401000000009004565b73502f0e47f460e9720aa343dcffb02a551c4de08d935062000154846040805190810160405280600681526020017f476f6f676c6500000000000000000000000000000000000000000000000000008152506040805190810160405280600381526020017f555341000000000000000000000000000000000000000000000000000000000081525062000299640100000000026401000000009004565b73677cc014c2ab64c4cf5bb19dfc13cbb15e0782569250620001f1836040805190810160405280600581526020017f43617468790000000000000000000000000000000000000000000000000000008152506040805190810160405280600681526020017f476f6f676c65000000000000000000000000000000000000000000000000000081525062000561640100000000026401000000009004565b73d401fea5a5980c204885c7ba58145218977227f791506200028e826040805190810160405280600881526020017f4a6f6e20536e6f770000000000000000000000000000000000000000000000008152506040805190810160405280600581526020017f4368696e610000000000000000000000000000000000000000000000000000008152506200080e640100000000026401000000009004565b505050505062000e07565b6080604051908101604052803373ffffffffffffffffffffffffffffffffffffffff1681526020018381526020018281526020016000815250600160008573ffffffffffffffffffffffffffffffffffffffff1673ffffffffffffffffffffffffffffffffffffffff16815260200190815260200160002060008201518160000160006101000a81548173ffffffffffffffffffffffffffffffffffffffff021916908373ffffffffffffffffffffffffffffffffffffffff16021790555060208201518160010190805190602001906200037692919062000b6c565b5060408201518160020190805190602001906200039592919062000b6c565b50606082015181600301559050506040805190810160405280600781526020017f436f6d70616e7900000000000000000000000000000000000000000000000000815250600360008573ffffffffffffffffffffffffffffffffffffffff1673ffffffffffffffffffffffffffffffffffffffff16815260200190815260200160002090805190602001906200042d92919062000bf3565b50600960008154809291906001019190505550600160008473ffffffffffffffffffffffffffffffffffffffff1673ffffffffffffffffffffffffffffffffffffffff1681526020019081526020016000206004600060095481526020019081526020016000206000820160009054906101000a900473ffffffffffffffffffffffffffffffffffffffff168160000160006101000a81548173ffffffffffffffffffffffffffffffffffffffff021916908373ffffffffffffffffffffffffffffffffffffffff160217905550600182018160010190805460018160011615610100020316600290046200052492919062000c7a565b50600282018160020190805460018160011615610100020316600290046200054e92919062000c7a565b5060038201548160030155905050505050565b6060604051908101604052808473ffffffffffffffffffffffffffffffffffffffff16815260200183815260200182815250600260008573ffffffffffffffffffffffffffffffffffffffff1673ffffffffffffffffffffffffffffffffffffffff16815260200190815260200160002060008201518160000160006101000a81548173ffffffffffffffffffffffffffffffffffffffff021916908373ffffffffffffffffffffffffffffffffffffffff16021790555060208201518160010190805190602001906200063792919062000b6c565b5060408201518160020190805190602001906200065692919062000b6c565b509050506040805190810160405280600281526020017f4852000000000000000000000000000000000000000000000000000000000000815250600360008573ffffffffffffffffffffffffffffffffffffffff1673ffffffffffffffffffffffffffffffffffffffff1681526020019081526020016000209080519060200190620006e492919062000bf3565b50600a60008154809291906001019190505550600260008473ffffffffffffffffffffffffffffffffffffffff1673ffffffffffffffffffffffffffffffffffffffff16815260200190815260200160002060066000600a5481526020019081526020016000206000820160009054906101000a900473ffffffffffffffffffffffffffffffffffffffff168160000160006101000a81548173ffffffffffffffffffffffffffffffffffffffff021916908373ffffffffffffffffffffffffffffffffffffffff16021790555060018201816001019080546001816001161561010002031660029004620007db92919062000c7a565b50600282018160020190805460018160011615610100020316600290046200080592919062000c7a565b50905050505050565b600060a0604051908101604052808573ffffffffffffffffffffffffffffffffffffffff168152602001848152602001838152602001603c8152602001828054806020026020016040519081016040528092919081815260200182805480156200089c57602002820191906000526020600020905b8154600019168152602001906001019080831162000883575b5050505050815250600760008673ffffffffffffffffffffffffffffffffffffffff1673ffffffffffffffffffffffffffffffffffffffff16815260200190815260200160002060008201518160000160006101000a81548173ffffffffffffffffffffffffffffffffffffffff021916908373ffffffffffffffffffffffffffffffffffffffff16021790555060208201518160010190805190602001906200094892919062000b6c565b5060408201518160020190805190602001906200096792919062000b6c565b506060820151816003015560808201518160040190805190602001906200099092919062000d08565b509050506040805190810160405280600981526020017f43616e6469646174650000000000000000000000000000000000000000000000815250600360008673ffffffffffffffffffffffffffffffffffffffff1673ffffffffffffffffffffffffffffffffffffffff168152602001908152602001600020908051906020019062000a1e92919062000bf3565b50600860008154809291906001019190505550600760008573ffffffffffffffffffffffffffffffffffffffff1673ffffffffffffffffffffffffffffffffffffffff1681526020019081526020016000206005600060085481526020019081526020016000206000820160009054906101000a900473ffffffffffffffffffffffffffffffffffffffff168160000160006101000a81548173ffffffffffffffffffffffffffffffffffffffff021916908373ffffffffffffffffffffffffffffffffffffffff1602179055506001820181600101908054600181600116156101000203166002900462000b1592919062000c7a565b506002820181600201908054600181600116156101000203166002900462000b3f92919062000c7a565b5060038201548160030155600482018160040190805462000b6292919062000d60565b5090505050505050565b828054600181600116156101000203166002900490600052602060002090601f016020900481019282601f1062000baf57805160ff191683800117855562000be0565b8280016001018555821562000be0579182015b8281111562000bdf57825182559160200191906001019062000bc2565b5b50905062000bef919062000db7565b5090565b828054600181600116156101000203166002900490600052602060002090601f016020900481019282601f1062000c3657805160ff191683800117855562000c67565b8280016001018555821562000c67579182015b8281111562000c6657825182559160200191906001019062000c49565b5b50905062000c76919062000db7565b5090565b828054600181600116156101000203166002900490600052602060002090601f016020900481019282601f1062000cb5578054855562000cf5565b8280016001018555821562000cf557600052602060002091601f016020900482015b8281111562000cf457825482559160010191906001019062000cd7565b5b50905062000d04919062000db7565b5090565b82805482825590600052602060002090810192821562000d4d579160200282015b8281111562000d4c57825182906000191690559160200191906001019062000d29565b5b50905062000d5c919062000ddf565b5090565b82805482825590600052602060002090810192821562000da45760005260206000209182015b8281111562000da357825482559160010191906001019062000d86565b5b50905062000db3919062000ddf565b5090565b62000ddc91905b8082111562000dd857600081600090555060010162000dbe565b5090565b90565b62000e0491905b8082111562000e0057600081600090555060010162000de6565b5090565b90565b61324e8062000e176000396000f300608060405260043610610107576000357c0100000000000000000000000000000000000000000000000000000000900463ffffffff1680631cd0a43a1461010c57806326541b56146101375780632d35a8a2146101e65780632eeb33bc14610211578063355e6ce8146102e05780633e7f4cf5146104425780633eee8a3e1461046f578063582e0d0e1461051e5780635c085957146106635780635f72f4501461071f57806364d6a6361461074c5780636559c310146108a7578063835331e1146109565780638753367f146109815780638ab66a90146109ae578063aa78bda514610b10578063b13c744b14610bdf578063d0366e5514610d2b578063f013873114610e77575b600080fd5b34801561011857600080fd5b50610121610f46565b6040518082815260200191505060405180910390f35b34801561014357600080fd5b506101e4600480360381019080803590602001908201803590602001908080601f0160208091040260200160405190810160405280939291908181526020018383808284378201915050505050509192919290803590602001908201803590602001908080601f0160208091040260200160405190810160405280939291908181526020018383808284378201915050505050509192919290505050610f4c565b005b3480156101f257600080fd5b506101fb611246565b6040518082815260200191505060405180910390f35b34801561021d57600080fd5b506102de600480360381019080803573ffffffffffffffffffffffffffffffffffffffff169060200190929190803590602001908201803590602001908080601f0160208091040260200160405190810160405280939291908181526020018383808284378201915050505050509192919290803590602001908201803590602001908080601f016020809104026020016040519081016040528093929190818152602001838380828437820191505050505050919291929050505061124c565b005b3480156102ec57600080fd5b50610321600480360381019080803573ffffffffffffffffffffffffffffffffffffffff16906020019092919050505061159a565b604051808573ffffffffffffffffffffffffffffffffffffffff1673ffffffffffffffffffffffffffffffffffffffff1681526020018060200180602001848152602001838103835286818151815260200191508051906020019080838360005b8381101561039d578082015181840152602081019050610382565b50505050905090810190601f1680156103ca5780820380516001836020036101000a031916815260200191505b50838103825285818151815260200191508051906020019080838360005b838110156104035780820151818401526020810190506103e8565b50505050905090810190601f1680156104305780820380516001836020036101000a031916815260200191505b50965050505050505060405180910390f35b34801561044e57600080fd5b5061046d6004803603810190808035906020019092919050505061171a565b005b34801561047b57600080fd5b5061051c600480360381019080803590602001908201803590602001908080601f0160208091040260200160405190810160405280939291908181526020018383808284378201915050505050509192919290803590602001908201803590602001908080601f01602080910402602001604051908101604052809392919081815260200183838082843782019150505050505091929192905050506117d1565b005b34801561052a57600080fd5b5061054960048036038101908080359060200190929190505050611a73565b604051808473ffffffffffffffffffffffffffffffffffffffff1673ffffffffffffffffffffffffffffffffffffffff1681526020018060200180602001838103835285818151815260200191508051906020019080838360005b838110156105bf5780820151818401526020810190506105a4565b50505050905090810190601f1680156105ec5780820380516001836020036101000a031916815260200191505b50838103825284818151815260200191508051906020019080838360005b8381101561062557808201518184015260208101905061060a565b50505050905090810190601f1680156106525780820380516001836020036101000a031916815260200191505b509550505050505060405180910390f35b34801561066f57600080fd5b506106a4600480360381019080803573ffffffffffffffffffffffffffffffffffffffff169060200190929190505050611bed565b6040518080602001828103825283818151815260200191508051906020019080838360005b838110156106e45780820151818401526020810190506106c9565b50505050905090810190601f1680156107115780820380516001836020036101000a031916815260200191505b509250505060405180910390f35b34801561072b57600080fd5b5061074a60048036038101908080359060200190929190505050611c9d565b005b34801561075857600080fd5b5061078d600480360381019080803573ffffffffffffffffffffffffffffffffffffffff169060200190929190505050611db5565b604051808473ffffffffffffffffffffffffffffffffffffffff1673ffffffffffffffffffffffffffffffffffffffff1681526020018060200180602001838103835285818151815260200191508051906020019080838360005b838110156108035780820151818401526020810190506107e8565b50505050905090810190601f1680156108305780820380516001836020036101000a031916815260200191505b50838103825284818151815260200191508051906020019080838360005b8381101561086957808201518184015260208101905061084e565b50505050905090810190601f1680156108965780820380516001836020036101000a031916815260200191505b509550505050505060405180910390f35b3480156108b357600080fd5b50610954600480360381019080803590602001908201803590602001908080601f0160208091040260200160405190810160405280939291908181526020018383808284378201915050505050509192919290803590602001908201803590602001908080601f0160208091040260200160405190810160405280939291908181526020018383808284378201915050505050509192919290505050611f2f565b005b34801561096257600080fd5b5061096b6121ec565b6040518082815260200191505060405180910390f35b34801561098d57600080fd5b506109ac600480360381019080803590602001909291905050506121f2565b005b3480156109ba57600080fd5b506109ef600480360381019080803573ffffffffffffffffffffffffffffffffffffffff169060200190929190505050612448565b604051808573ffffffffffffffffffffffffffffffffffffffff1673ffffffffffffffffffffffffffffffffffffffff1681526020018060200180602001848152602001838103835286818151815260200191508051906020019080838360005b83811015610a6b578082015181840152602081019050610a50565b50505050905090810190601f168015610a985780820380516001836020036101000a031916815260200191505b50838103825285818151815260200191508051906020019080838360005b83811015610ad1578082015181840152602081019050610ab6565b50505050905090810190601f168015610afe5780820380516001836020036101000a031916815260200191505b50965050505050505060405180910390f35b348015610b1c57600080fd5b50610bdd600480360381019080803573ffffffffffffffffffffffffffffffffffffffff169060200190929190803590602001908201803590602001908080601f0160208091040260200160405190810160405280939291908181526020018383808284378201915050505050509192919290803590602001908201803590602001908080601f01602080910402602001604051908101604052809392919081815260200183838082843782019150505050505091929192905050506125c8565b005b348015610beb57600080fd5b50610c0a60048036038101908080359060200190929190505050612886565b604051808573ffffffffffffffffffffffffffffffffffffffff1673ffffffffffffffffffffffffffffffffffffffff1681526020018060200180602001848152602001838103835286818151815260200191508051906020019080838360005b83811015610c86578082015181840152602081019050610c6b565b50505050905090810190601f168015610cb35780820380516001836020036101000a031916815260200191505b50838103825285818151815260200191508051906020019080838360005b83811015610cec578082015181840152602081019050610cd1565b50505050905090810190601f168015610d195780820380516001836020036101000a031916815260200191505b50965050505050505060405180910390f35b348015610d3757600080fd5b50610d5660048036038101908080359060200190929190505050612a06565b604051808573ffffffffffffffffffffffffffffffffffffffff1673ffffffffffffffffffffffffffffffffffffffff1681526020018060200180602001848152602001838103835286818151815260200191508051906020019080838360005b83811015610dd2578082015181840152602081019050610db7565b50505050905090810190601f168015610dff5780820380516001836020036101000a031916815260200191505b50838103825285818151815260200191508051906020019080838360005b83811015610e38578082015181840152602081019050610e1d565b50505050905090810190601f168015610e655780820380516001836020036101000a031916815260200191505b50965050505050505060405180910390f35b348015610e8357600080fd5b50610f44600480360381019080803573ffffffffffffffffffffffffffffffffffffffff169060200190929190803590602001908201803590602001908080601f0160208091040260200160405190810160405280939291908181526020018383808284378201915050505050509192919290803590602001908201803590602001908080601f0160208091040260200160405190810160405280939291908181526020018383808284378201915050505050509192919290505050612b86565b005b600a5481565b606060a0604051908101604052803373ffffffffffffffffffffffffffffffffffffffff168152602001848152602001838152602001603c815260200182815250600760003373ffffffffffffffffffffffffffffffffffffffff1673ffffffffffffffffffffffffffffffffffffffff16815260200190815260200160002060008201518160000160006101000a81548173ffffffffffffffffffffffffffffffffffffffff021916908373ffffffffffffffffffffffffffffffffffffffff160217905550602082015181600101908051906020019061102f929190612fac565b50604082015181600201908051906020019061104c929190612fac565b5060608201518160030155608082015181600401908051906020019061107392919061302c565b509050506040805190810160405280600981526020017f43616e6469646174650000000000000000000000000000000000000000000000815250600360003373ffffffffffffffffffffffffffffffffffffffff1673ffffffffffffffffffffffffffffffffffffffff16815260200190815260200160002090805190602001906110ff92919061307f565b50600860008154809291906001019190505550600760003373ffffffffffffffffffffffffffffffffffffffff1673ffffffffffffffffffffffffffffffffffffffff1681526020019081526020016000206005600060085481526020019081526020016000206000820160009054906101000a900473ffffffffffffffffffffffffffffffffffffffff168160000160006101000a81548173ffffffffffffffffffffffffffffffffffffffff021916908373ffffffffffffffffffffffffffffffffffffffff160217905550600182018160010190805460018160011615610100020316600290046111f49291906130ff565b506002820181600201908054600181600116156101000203166002900461121c9291906130ff565b5060038201548160030155600482018160040190805461123d929190613186565b50905050505050565b60085481565b600060a0604051908101604052808573ffffffffffffffffffffffffffffffffffffffff168152602001848152602001838152602001603c8152602001828054806020026020016040519081016040528092919081815260200182805480156112d857602002820191906000526020600020905b815460001916815260200190600101908083116112c0575b5050505050815250600760008673ffffffffffffffffffffffffffffffffffffffff1673ffffffffffffffffffffffffffffffffffffffff16815260200190815260200160002060008201518160000160006101000a81548173ffffffffffffffffffffffffffffffffffffffff021916908373ffffffffffffffffffffffffffffffffffffffff1602179055506020820151816001019080519060200190611382929190612fac565b50604082015181600201908051906020019061139f929190612fac565b506060820151816003015560808201518160040190805190602001906113c692919061302c565b509050506040805190810160405280600981526020017f43616e6469646174650000000000000000000000000000000000000000000000815250600360008673ffffffffffffffffffffffffffffffffffffffff1673ffffffffffffffffffffffffffffffffffffffff168152602001908152602001600020908051906020019061145292919061307f565b50600860008154809291906001019190505550600760008573ffffffffffffffffffffffffffffffffffffffff1673ffffffffffffffffffffffffffffffffffffffff1681526020019081526020016000206005600060085481526020019081526020016000206000820160009054906101000a900473ffffffffffffffffffffffffffffffffffffffff168160000160006101000a81548173ffffffffffffffffffffffffffffffffffffffff021916908373ffffffffffffffffffffffffffffffffffffffff160217905550600182018160010190805460018160011615610100020316600290046115479291906130ff565b506002820181600201908054600181600116156101000203166002900461156f9291906130ff565b50600382015481600301556004820181600401908054611590929190613186565b5090505050505050565b60016020528060005260406000206000915090508060000160009054906101000a900473ffffffffffffffffffffffffffffffffffffffff1690806001018054600181600116156101000203166002900480601f01602080910402602001604051908101604052809291908181526020018280546001816001161561010002031660029004801561166c5780601f106116415761010080835404028352916020019161166c565b820191906000526020600020905b81548152906001019060200180831161164f57829003601f168201915b505050505090806002018054600181600116156101000203166002900480601f01602080910402602001604051908101604052809291908181526020018280546001816001161561010002031660029004801561170a5780601f106116df5761010080835404028352916020019161170a565b820191906000526020600020905b8154815290600101906020018083116116ed57829003601f168201915b5050505050908060030154905084565b6000611799600360003373ffffffffffffffffffffffffffffffffffffffff1673ffffffffffffffffffffffffffffffffffffffff1681526020019081526020016000206040805190810160405280600981526020017f43616e6469646174650000000000000000000000000000000000000000000000815250612e29565b15156117a457600080fd5b60046000838152602001908152602001600020905080600301600081548092919060010191905055505050565b6060604051908101604052803373ffffffffffffffffffffffffffffffffffffffff16815260200183815260200182815250600260003373ffffffffffffffffffffffffffffffffffffffff1673ffffffffffffffffffffffffffffffffffffffff16815260200190815260200160002060008201518160000160006101000a81548173ffffffffffffffffffffffffffffffffffffffff021916908373ffffffffffffffffffffffffffffffffffffffff16021790555060208201518160010190805190602001906118a5929190612fac565b5060408201518160020190805190602001906118c2929190612fac565b509050506040805190810160405280600281526020017f4852000000000000000000000000000000000000000000000000000000000000815250600360003373ffffffffffffffffffffffffffffffffffffffff1673ffffffffffffffffffffffffffffffffffffffff168152602001908152602001600020908051906020019061194e92919061307f565b50600a60008154809291906001019190505550600260003373ffffffffffffffffffffffffffffffffffffffff1673ffffffffffffffffffffffffffffffffffffffff16815260200190815260200160002060066000600a5481526020019081526020016000206000820160009054906101000a900473ffffffffffffffffffffffffffffffffffffffff168160000160006101000a81548173ffffffffffffffffffffffffffffffffffffffff021916908373ffffffffffffffffffffffffffffffffffffffff16021790555060018201816001019080546001816001161561010002031660029004611a439291906130ff565b5060028201816002019080546001816001161561010002031660029004611a6b9291906130ff565b509050505050565b60066020528060005260406000206000915090508060000160009054906101000a900473ffffffffffffffffffffffffffffffffffffffff1690806001018054600181600116156101000203166002900480601f016020809104026020016040519081016040528092919081815260200182805460018160011615610100020316600290048015611b455780601f10611b1a57610100808354040283529160200191611b45565b820191906000526020600020905b815481529060010190602001808311611b2857829003601f168201915b505050505090806002018054600181600116156101000203166002900480601f016020809104026020016040519081016040528092919081815260200182805460018160011615610100020316600290048015611be35780601f10611bb857610100808354040283529160200191611be3565b820191906000526020600020905b815481529060010190602001808311611bc657829003601f168201915b5050505050905083565b60036020528060005260406000206000915090508054600181600116156101000203166002900480601f016020809104026020016040519081016040528092919081815260200182805460018160011615610100020316600290048015611c955780601f10611c6a57610100808354040283529160200191611c95565b820191906000526020600020905b815481529060010190602001808311611c7857829003601f168201915b505050505081565b6000806000611d1f600360003373ffffffffffffffffffffffffffffffffffffffff1673ffffffffffffffffffffffffffffffffffffffff1681526020019081526020016000206040805190810160405280600281526020017f4852000000000000000000000000000000000000000000000000000000000000815250612e29565b1515611d2a57600080fd5b60056000858152602001908152602001600020600401925060019150600090505b8280549050811015611daf57818015611da057506000808483815481101515611d7057fe5b90600052602060002001546000191660001916815260200190815260200160002060009054906101000a900460ff165b91508080600101915050611d4b565b50505050565b60026020528060005260406000206000915090508060000160009054906101000a900473ffffffffffffffffffffffffffffffffffffffff1690806001018054600181600116156101000203166002900480601f016020809104026020016040519081016040528092919081815260200182805460018160011615610100020316600290048015611e875780601f10611e5c57610100808354040283529160200191611e87565b820191906000526020600020905b815481529060010190602001808311611e6a57829003601f168201915b505050505090806002018054600181600116156101000203166002900480601f016020809104026020016040519081016040528092919081815260200182805460018160011615610100020316600290048015611f255780601f10611efa57610100808354040283529160200191611f25565b820191906000526020600020905b815481529060010190602001808311611f0857829003601f168201915b5050505050905083565b6080604051908101604052803373ffffffffffffffffffffffffffffffffffffffff1681526020018381526020018281526020016000815250600160003373ffffffffffffffffffffffffffffffffffffffff1673ffffffffffffffffffffffffffffffffffffffff16815260200190815260200160002060008201518160000160006101000a81548173ffffffffffffffffffffffffffffffffffffffff021916908373ffffffffffffffffffffffffffffffffffffffff160217905550602082015181600101908051906020019061200a929190612fac565b506040820151816002019080519060200190612027929190612fac565b50606082015181600301559050506040805190810160405280600781526020017f436f6d70616e7900000000000000000000000000000000000000000000000000815250600360003373ffffffffffffffffffffffffffffffffffffffff1673ffffffffffffffffffffffffffffffffffffffff16815260200190815260200160002090805190602001906120bd92919061307f565b50600960008154809291906001019190505550600160003373ffffffffffffffffffffffffffffffffffffffff1673ffffffffffffffffffffffffffffffffffffffff1681526020019081526020016000206004600060095481526020019081526020016000206000820160009054906101000a900473ffffffffffffffffffffffffffffffffffffffff168160000160006101000a81548173ffffffffffffffffffffffffffffffffffffffff021916908373ffffffffffffffffffffffffffffffffffffffff160217905550600182018160010190805460018160011615610100020316600290046121b29291906130ff565b50600282018160020190805460018160011615610100020316600290046121da9291906130ff565b50600382015481600301559050505050565b60095481565b6060600080612274600360003373ffffffffffffffffffffffffffffffffffffffff1673ffffffffffffffffffffffffffffffffffffffff1681526020019081526020016000206040805190810160405280600781526020017f436f6d70616e7900000000000000000000000000000000000000000000000000815250612e29565b151561227f57600080fd5b606060405190810160405280602f81526020017f4a6f6e20536e6f7720686173206265656e20776f726b696e6720696e2044696481526020017f6920666f722074776f20796561727300000000000000000000000000000000008152509250826040516020018082805190602001908083835b60208310151561231757805182526020820191506020810190506020830392506122f2565b6001836020036101000a0380198251168184511680821785525050505050509050019150506040516020818303038152906040526040518082805190602001908083835b602083101515612380578051825260208201915060208101905060208303925061235b565b6001836020036101000a038019825116818451168082178552505050505050905001915050604051809103902091506001600080846000191660001916815260200190815260200160002060006101000a81548160ff02191690831515021790555060056000858152602001908152602001600020905080600401829080600181540180825580915050906001820390600052602060002001600090919290919091509060001916905550600181600401805490501015151561244257600080fd5b50505050565b60076020528060005260406000206000915090508060000160009054906101000a900473ffffffffffffffffffffffffffffffffffffffff1690806001018054600181600116156101000203166002900480601f01602080910402602001604051908101604052809291908181526020018280546001816001161561010002031660029004801561251a5780601f106124ef5761010080835404028352916020019161251a565b820191906000526020600020905b8154815290600101906020018083116124fd57829003601f168201915b505050505090806002018054600181600116156101000203166002900480601f0160208091040260200160405190810160405280929190818152602001828054600181600116156101000203166002900480156125b85780601f1061258d576101008083540402835291602001916125b8565b820191906000526020600020905b81548152906001019060200180831161259b57829003601f168201915b5050505050908060030154905084565b6080604051908101604052803373ffffffffffffffffffffffffffffffffffffffff1681526020018381526020018281526020016000815250600160008573ffffffffffffffffffffffffffffffffffffffff1673ffffffffffffffffffffffffffffffffffffffff16815260200190815260200160002060008201518160000160006101000a81548173ffffffffffffffffffffffffffffffffffffffff021916908373ffffffffffffffffffffffffffffffffffffffff16021790555060208201518160010190805190602001906126a3929190612fac565b5060408201518160020190805190602001906126c0929190612fac565b50606082015181600301559050506040805190810160405280600781526020017f436f6d70616e7900000000000000000000000000000000000000000000000000815250600360008573ffffffffffffffffffffffffffffffffffffffff1673ffffffffffffffffffffffffffffffffffffffff168152602001908152602001600020908051906020019061275692919061307f565b50600960008154809291906001019190505550600160008473ffffffffffffffffffffffffffffffffffffffff1673ffffffffffffffffffffffffffffffffffffffff1681526020019081526020016000206004600060095481526020019081526020016000206000820160009054906101000a900473ffffffffffffffffffffffffffffffffffffffff168160000160006101000a81548173ffffffffffffffffffffffffffffffffffffffff021916908373ffffffffffffffffffffffffffffffffffffffff1602179055506001820181600101908054600181600116156101000203166002900461284b9291906130ff565b50600282018160020190805460018160011615610100020316600290046128739291906130ff565b5060038201548160030155905050505050565b60056020528060005260406000206000915090508060000160009054906101000a900473ffffffffffffffffffffffffffffffffffffffff1690806001018054600181600116156101000203166002900480601f0160208091040260200160405190810160405280929190818152602001828054600181600116156101000203166002900480156129585780601f1061292d57610100808354040283529160200191612958565b820191906000526020600020905b81548152906001019060200180831161293b57829003601f168201915b505050505090806002018054600181600116156101000203166002900480601f0160208091040260200160405190810160405280929190818152602001828054600181600116156101000203166002900480156129f65780601f106129cb576101008083540402835291602001916129f6565b820191906000526020600020905b8154815290600101906020018083116129d957829003601f168201915b5050505050908060030154905084565b60046020528060005260406000206000915090508060000160009054906101000a900473ffffffffffffffffffffffffffffffffffffffff1690806001018054600181600116156101000203166002900480601f016020809104026020016040519081016040528092919081815260200182805460018160011615610100020316600290048015612ad85780601f10612aad57610100808354040283529160200191612ad8565b820191906000526020600020905b815481529060010190602001808311612abb57829003601f168201915b505050505090806002018054600181600116156101000203166002900480601f016020809104026020016040519081016040528092919081815260200182805460018160011615610100020316600290048015612b765780601f10612b4b57610100808354040283529160200191612b76565b820191906000526020600020905b815481529060010190602001808311612b5957829003601f168201915b5050505050908060030154905084565b6060604051908101604052808473ffffffffffffffffffffffffffffffffffffffff16815260200183815260200182815250600260008573ffffffffffffffffffffffffffffffffffffffff1673ffffffffffffffffffffffffffffffffffffffff16815260200190815260200160002060008201518160000160006101000a81548173ffffffffffffffffffffffffffffffffffffffff021916908373ffffffffffffffffffffffffffffffffffffffff1602179055506020820151816001019080519060200190612c5a929190612fac565b506040820151816002019080519060200190612c77929190612fac565b509050506040805190810160405280600281526020017f4852000000000000000000000000000000000000000000000000000000000000815250600360008573ffffffffffffffffffffffffffffffffffffffff1673ffffffffffffffffffffffffffffffffffffffff1681526020019081526020016000209080519060200190612d0392919061307f565b50600a60008154809291906001019190505550600260008473ffffffffffffffffffffffffffffffffffffffff1673ffffffffffffffffffffffffffffffffffffffff16815260200190815260200160002060066000600a5481526020019081526020016000206000820160009054906101000a900473ffffffffffffffffffffffffffffffffffffffff168160000160006101000a81548173ffffffffffffffffffffffffffffffffffffffff021916908373ffffffffffffffffffffffffffffffffffffffff16021790555060018201816001019080546001816001161561010002031660029004612df89291906130ff565b5060028201816002019080546001816001161561010002031660029004612e209291906130ff565b50905050505050565b60008060606000859250849150815183805460018160011615610100020316600290049050141515612e5e5760009350612fa3565b600090505b82805460018160011615610100020316600290049050811015612f9e578181815181101515612e8e57fe5b9060200101517f010000000000000000000000000000000000000000000000000000000000000090047f0100000000000000000000000000000000000000000000000000000000000000027effffffffffffffffffffffffffffffffffffffffffffffffffffffffffffff191683828154600181600116156101000203166002900481101515612f1a57fe5b815460011615612f395790600052602060002090602091828204019190065b9054901a7f0100000000000000000000000000000000000000000000000000000000000000027effffffffffffffffffffffffffffffffffffffffffffffffffffffffffffff1916141515612f915760009350612fa3565b8080600101915050612e63565b600193505b50505092915050565b828054600181600116156101000203166002900490600052602060002090601f016020900481019282601f10612fed57805160ff191683800117855561301b565b8280016001018555821561301b579182015b8281111561301a578251825591602001919060010190612fff565b5b50905061302891906131d8565b5090565b82805482825590600052602060002090810192821561306e579160200282015b8281111561306d57825182906000191690559160200191906001019061304c565b5b50905061307b91906131fd565b5090565b828054600181600116156101000203166002900490600052602060002090601f016020900481019282601f106130c057805160ff19168380011785556130ee565b828001600101855582156130ee579182015b828111156130ed5782518255916020019190600101906130d2565b5b5090506130fb91906131d8565b5090565b828054600181600116156101000203166002900490600052602060002090601f016020900481019282601f106131385780548555613175565b8280016001018555821561317557600052602060002091601f016020900482015b82811115613174578254825591600101919060010190613159565b5b50905061318291906131d8565b5090565b8280548282559060005260206000209081019282156131c75760005260206000209182015b828111156131c65782548255916001019190600101906131ab565b5b5090506131d491906131fd565b5090565b6131fa91905b808211156131f65760008160009055506001016131de565b5090565b90565b61321f91905b8082111561321b576000816000905550600101613203565b5090565b905600a165627a7a72305820cfaf3fee095e719c8ec7fd039c0224e68c99b699e6cb21cdae024d68d65e4b200029",
  "source": "pragma solidity ^0.4.2;\n\ncontract Election {\n    // Model a Candidate\n    struct Candidate {\n        address id;\n        string name;\n        string country;\n        uint score;\n        bytes32[] resume;\n    }\n    struct Company{\n        address id;\n        string name;\n        string country;\n        uint rating;\n    }\n    struct HR{\n        address id;\n        string name;\n        string company_name;\n    }\n    mapping(bytes32 => bool) private hashTable;\n    mapping(address => Company) public companies;\n    mapping(address => HR) public HRs;\n    // Store accounts that have voted\n    mapping(address => string) public registerList;\n    mapping(uint => Company) public companyList;\n    mapping(uint => Candidate) public candidateList;\n    mapping(uint => HR) public HRList;\n    // Store Candidates\n    // Fetch Candidate\n    mapping(address => Candidate) public candidates;\n    // Store Candidates Count\n    uint public candidatesCount;\n    uint public companiesCount;\n    uint public HRCount;\n    // voted event\n    event votedEvent (\n        uint indexed _candidateId\n    );\n    function stringsEqual(string storage _a, string memory _b) internal returns (bool) {\n        bytes storage a = bytes(_a);\n        bytes memory b = bytes(_b);\n        if (a.length != b.length)\n            return false;\n        // @todo unroll this loop\n        for (uint i = 0; i < a.length; i ++)\n            if (a[i] != b[i])\n                return false;\n        return true;\n    }\n    function Election () public {\n        address c1 = 0xe1e666DADF9F3D76492Fab543CD9679d665399eB;\n        initCompany(c1,'Didi','China');\n        address c2 = 0x502f0E47F460E9720AA343dCffb02A551C4de08d;\n        initCompany(c2,'Google','USA');\n        address h1 = 0x677Cc014c2aB64c4cF5BB19dfc13cBB15E078256;\n        initHR(h1,'Cathy','Google');\n        address e1 = 0xd401FEa5a5980c204885C7BA58145218977227F7;\n        bytes32[] r1;\n        initCandidate(e1,'Jon Snow', 'China');\n    }\n    function initCandidate (address a, string _name, string _country) public {\n        bytes32[] x;\n        candidates[a] = Candidate(a, _name,_country,60,x);\n        registerList[a] = 'Candidate';\n        candidatesCount++;\n        candidateList[candidatesCount] = candidates[a];\n    }\n\n    function initCompany (address a,string _name, string _country) public {\n        companies[a] = Company(msg.sender, _name,_country,0);\n        registerList[a] = 'Company';\n        companiesCount++;\n        companyList[companiesCount] = companies[a];\n    }\n    function initHR (address a,string _name, string company) public {\n        HRs[a] = HR(a, _name,company);\n        registerList[a] = 'HR';\n        HRCount++;\n        HRList[HRCount] = HRs[a];\n    }\n    function addCandidate (string _name, string _country) public {\n        //require(!registerList[msg.sender]);\n        bytes32[] memory x;\n        candidates[msg.sender] = Candidate(msg.sender, _name,_country,60,x);\n        registerList[msg.sender] = \"Candidate\";\n        candidatesCount++;\n        candidateList[candidatesCount] = candidates[msg.sender];\n    }\n\n    function addCompany (string _name, string _country) public {\n        companies[msg.sender] = Company(msg.sender, _name,_country,0);\n        registerList[msg.sender] = \"Company\";\n        companiesCount++;\n        companyList[companiesCount] = companies[msg.sender];\n    }\n    function addHR (string _name, string company) public {\n        HRs[msg.sender] = HR(msg.sender, _name,company);\n        registerList[msg.sender] = \"HR\";\n        HRCount++;\n        HRList[HRCount] = HRs[msg.sender];\n    }\n\n    function verify (uint _candidateId) public {\n        // require that they haven't voted before\n\n        require(stringsEqual(registerList[msg.sender] , 'Company'));\n        var tasks = \"Jon Snow has been working in Didi for two years\";\n        bytes32 hash = keccak256(abi.encodePacked(tasks));\n        hashTable[hash] = true;\n        var candidate = candidateList[_candidateId];\n        candidate.resume.push(hash);\n        require(candidate.resume.length >= 1);\n\n\n\n\n    }\n    function Rate (uint _companyId) public {\n        require(stringsEqual(registerList[msg.sender] , 'Candidate'));\n        var company = companyList[_companyId];\n        company.rating ++;\n\n\n\n    }\n    function check (uint employee) public {\n        require(stringsEqual(registerList[msg.sender] , \"HR\"));\n        var resume = candidateList[employee].resume; \n        bool checked = true;\n        for (uint i=0; i<resume.length; i++) {\n            checked = checked && hashTable[resume[i]];\n    }\n        //return checked;\n    }\n}\n",
  "sourcePath": "C:\\Users\\wukai\\Downloads\\BlockChain CV\\contracts\\Election.sol",
  "compiler": {
    "name": "solc",
    "version": "0.4.24+commit.e67f0147.Emscripten.clang"
  },
  "schemaVersion": "2.0.1",
  "updatedAt": "2018-10-14T12:53:36.833Z"
}